{
  "contractName": "Faucet",
  "abi": [
    {
      "anonymous": false,
      "inputs": [
        {
          "indexed": true,
          "internalType": "address",
          "name": "to",
          "type": "address"
        },
        {
          "indexed": false,
          "internalType": "uint256",
          "name": "amount",
          "type": "uint256"
        }
      ],
      "name": "Withdrawal",
      "type": "event"
    },
    {
      "inputs": [],
      "name": "fund",
      "outputs": [
        {
          "internalType": "uint256",
          "name": "",
          "type": "uint256"
        }
      ],
      "stateMutability": "view",
      "type": "function",
      "constant": true
    },
    {
      "inputs": [],
      "name": "test",
      "outputs": [
        {
          "internalType": "uint32",
          "name": "",
          "type": "uint32"
        }
      ],
      "stateMutability": "view",
      "type": "function",
      "constant": true
    },
    {
      "inputs": [
        {
          "internalType": "uint256",
          "name": "withdraw_amount",
          "type": "uint256"
        }
      ],
      "name": "withdraw",
      "outputs": [],
      "stateMutability": "nonpayable",
      "type": "function"
    }
  ],
  "bytecode": "0x60806040526103e860005561283c600160006101000a81548163ffffffff021916908363ffffffff16021790555034801561003957600080fd5b5061033a806100496000396000f3fe608060405234801561001057600080fd5b50600436106100415760003560e01c80632e1a7d4d14610046578063b60d428814610062578063f8a8fd6d14610080575b600080fd5b610060600480360381019061005b91906101d0565b61009e565b005b61006a610179565b604051610077919061020c565b60405180910390f35b61008861017f565b6040516100959190610246565b60405180910390f35b804710156100e1576040517f08c379a00000000000000000000000000000000000000000000000000000000081526004016100d8906102e4565b60405180910390fd5b3373ffffffffffffffffffffffffffffffffffffffff166108fc829081150290604051600060405180830381858888f19350505050158015610127573d6000803e3d6000fd5b503373ffffffffffffffffffffffffffffffffffffffff167f7fcf532c15f0a6db0bd6d0e038bea71d30d808c7d98cb3bf7268a95bf5081b658260405161016e919061020c565b60405180910390a250565b60005481565b600160009054906101000a900463ffffffff1681565b600080fd5b6000819050919050565b6101ad8161019a565b81146101b857600080fd5b50565b6000813590506101ca816101a4565b92915050565b6000602082840312156101e6576101e5610195565b5b60006101f4848285016101bb565b91505092915050565b6102068161019a565b82525050565b600060208201905061022160008301846101fd565b92915050565b600063ffffffff82169050919050565b61024081610227565b82525050565b600060208201905061025b6000830184610237565b92915050565b600082825260208201905092915050565b7f496e73756666696369656e742062616c616e636520696e20666175636574206660008201527f6f72207769746864726177616c20726571756573740000000000000000000000602082015250565b60006102ce603583610261565b91506102d982610272565b604082019050919050565b600060208201905081810360008301526102fd816102c1565b905091905056fea26469706673582212204e8962e1e016d8d5b74ec1b0ac01116b8347009ed73ecd0206783552487897f764736f6c634300080c0033",
  "immutableReferences": {},
  "source": "// SPDX-License-Identifier: UNLICENSED\r\npragma solidity >=0.4.22 <0.9.0;\r\n\r\ncontract Faucet {\r\n    // Storage variables\r\n    uint public fund = 1000; // Because uint holds only positive values and int holds both negative and positive values \r\n    uint32 public test = 10300;\r\n\r\n    // Event to emit when Ether is withdrawn\r\n    event Withdrawal(address indexed to, uint amount);\r\n\r\n    // Function to withdraw Ether from the contract\r\n    function withdraw(uint withdraw_amount) public {\r\n        // Check that the contract has enough Ether to withdraw\r\n        require(address(this).balance >= withdraw_amount, \"Insufficient balance in faucet for withdrawal request\");\r\n\r\n        // Send the amount to the address that requested it\r\n        payable(msg.sender).transfer(withdraw_amount);\r\n\r\n        // Emit an event for the withdrawal\r\n        emit Withdrawal(msg.sender, withdraw_amount);\r\n    }\r\n}",
  "sourcePath": "D:\\blockchain\\app\\contracts\\Faucet.sol",
  "compiler": {
    "name": "solc",
    "version": "0.8.12+commit.f00d7308.Emscripten.clang"
  },
  "schemaVersion": "3.4.16",
  "updatedAt": "2024-05-20T11:16:49.684Z",
  "networkType": "ethereum",
  "devdoc": {
    "kind": "dev",
    "methods": {},
    "version": 1
  },
  "userdoc": {
    "kind": "user",
    "methods": {},
    "version": 1
  }
}